:0F0949000A4E52465F56310A0000E7E7E7E7E73C
:0909CA00C10841004000014D008C
:0A09C0008FE7E5E630E1FBAFE72228
:0208CB00AE0578
:1008CD00C2E91209C0AD07AF061209C0D2E9AF05E2
:0108DD0022F8
:0C096600C2E91209C0E4FF1209C0D2E986
:010972002262
:0607AB008B098A0A890B8C
:1007B100C2E91209C0AE07E4FDEDC3950C5017E480
:1007C100FF1209C0AB09AA0AA90B8D82758300EF3C
:0A07D10012025C0D80E3D2E9AF06CE
:0107DB0022FB
:060779008B178A18891994
:10077F00C2E91209C0AE07E4FDEDC3951A5018ABDC
:10078F00170519E519AA187002051814F9120204B1
:0B079F00FF1209C00D80E2D2E9AF0696
:0107AA00222C
:10091600E4F520C208C2E87D0F7F201208CBD2E89A
:0109260022AE
:100712008E108F11C2E87D0E7F201208CB7BFF7AEC
:10072200097953751A057F2A1207797B017A0079B4
:100732002085111A7FA0120779D2E8A2047205500F
:04074200FA02091698
:03004B0002033578
:10033500C0E0C083C082C0D075D000C000C001C07D
:1003450002C003C005C006C0077F071209668F20DB
:100355003006307B017A007900750C207F61120729
:10036500ABE4FD7FE21208CBD2087F6012096690EC
:100375000040EFF0D39420400AE4F0FD7FE212083C
:10038500CBC208300407E4FD7FE11208CB30050736
:10039500E4FD7FE11208CB7D707F271208CBD007E3
:1003A500D006D005D003D002D001D000D0D0D08265
:0503B500D083D0E0320E
:06015F008B0D8A0E890FD2
:100165007C07C2E8D2EAD2B9C2E8D2EAE515146042
:100175000F146014146016240370155304F98010CD
:100185005304FB43040280085304FD800043040428
:10019500E514600E1460101470135304F743042023
:1001A500800B5304D780065304DF430408AB10AA21
:1001B50011A912751A057F30120779AB0DAA0EA980
:1001C5000F751A057F2A1207797D017F221208CB48
:1001D500E4FD7F211208CBE4FD7F241208CBAD138B
:1001E5007F251208CBAD047F261208CB7D017F3C0D
:0F01F5001208CB7D077F3D1208CBD2AF0209164F
:100003001208DE1207DC7510FF751109751253759E
:10001300135C7514017515037BFF7A09795312017B
:100023005F7BFF7A0979491207467F0A7E0012082F
:10003300B71207DC7F011208517DFA7C007F0102B1
:0200430007E2D2
:10005600120003E54D70097DF47C017F021207E270
:100066003008F0E4F520C208900000E070E5A3E057
:1000760024FE603114604F1460611470030201089D
:10008600147003020122240560030201539000024A
:10009600E0FD751001751100751204A3E0FB7F6881
:1000A60012065E80AEE4900020F0A37402F0900089
:1000B60002E0FD751001751100751222A3E0FB7FA9
:1000C6006812043D8030900002E0FF7B017A0079DF
:1000D60004A3E0F5111206D8020059E4900020F0BE
:1000E600A37404F0900002E0FF7B017A007922A35A
:1000F600E0F511120611900003E02402FFE433FE3E
:100106008045E4900020F0A37406F0A37401F07F0C
:10011600037E00120712754D01020059900002E09D
:1001260014600B14600C2402700AC2828006D2820C
:100136008002B282E4900020F0A37406F0A282E46A
:1001460033A3F07F037E001207120200597DFA7C6A
:09015600007F021207E2020059C9
:1008DE00E4F593F594F59EF59F5393EF5393FB43F5
:0308EE009F5322F3
:0607DC007DFA7C007F01A4
:1007E2008F0D8C0E8D0FE50DD394004016B282AFA3
:1007F2000FAE0E1208B7B282AF0FAE0E1208B715C7
:040802000D80E32260
:060746008B0D8A0E890FE5
:10074C001208A2E4FEEEC39F501EAB0DAA0EA90F19
:10075C008E8275830012021DFD74202EF582E43406
:0D076C0000F583EDF00E80DD7E0002071227
:0300530002069D05
:10069D00C0E0C0F0C083C082C0D075D000C000C023
:1006AD0001C002C003C004C005C006C0071209D4B2
:1006BD00D007D006D005D004D003D002D001D00091
:0B06CD00D0D0D082D083D0F0D0E0323B
:0709270014F9120204F5DAD5
:0A092E00E4F54BE54B60FCAF4C22F2
:0A09D40085E14CE54C5401F54B227F
:0B097300EF600443E2802253E27F2289
:0B097E00EF600443E2402253E2BF227E
:0B098900EF600453E2DF2243E2202273
:0B099400EF600453E2EF2243E2102268
:06004500EF547FF5D92203
:0E095800EF25E025E0FFE5E254F34FF5E22243
:0B099F00EF700443E2022253E2FD224D
:0B09AA00EF600443E2012253E2FE2252
:0B09B500EF600475E1DF2275E12022F5
:10085100AE077F011209AAAF06120958E4FF120977
:100861009F43A60443B804E4F5E10F1209B5C2C2DF
:010871002264
:10080600E4752EFFF52DF52CF52B85E12FE52F54FC
:1008160001F530E52F5402F5317F0A7E0012087D7E
:06082600E53060E6AF2F93
:01082C0022A9
:10088C0043E210EF25E04DF5DA12092EEF30E103CB
:05089C007F00227F0136
:0108A1002234
:0606D8008B0E8A0F891051
:1006DE00E4FD12088CAE07AF111511EFD394004054
:0406EE001DBE011A12
:1006F200AB0E0510E510AA0F7002050F1209278F25
:0807020012E51230E1DDE4FE16
:07070A0080D943E220AF0695
:0107110022C5
:060611008B0E8A0F891018
:100617007D0112088C8F12E51270031203BAAF1115
:100627001511EF602FE512602BE511700343E220EF
:1006370012092EAB0E0510E510AA0F7002050F1454
:10064700F9E5DA12024AEF20E1047F0180027F0018
:060657008F1280CAAF12F1
:01065D00227A
:1003BA00E5E2540CF5165390F3E59454F3440CF526
:1003CA009475E20375E20775E206E59454F344086E
:1003DA00F5947F057E0012087D5394F37F057E0015
:1003EA0012087DE4F515E59454F34404F5947F0569
:1003FA007E0012087D5394F37F057E0012087D0566
:10040A0015E515C3940840DE7F057E0012087DE5D8
:10041A009454F34404F5947F057E0012087DE59414
:10042A0054F3440CF59475E20775E203E5164403A8
:02043A00F5E2E9
:01043C00229D
:100938008B4E75100075110075124E7B0112065E04
:01094800228C
:04065E00AE03AC0536
:10066200E4FD12088CAD078CDA12092EEF30E1029C
:10067200E4FDAC061EECD39400401ABD0117AB108A
:100682000512E512AA1170020511120927EF30E1D5
:0A069200E1E4FD80DD43E220AF0546
:01069C00223B
:100904008B468A4789488B108A1189127B0112040D
:020914003D2282
:06043D008B0FAE07AC05B9
:10044300E4FD12088C8F148CDA12092E8F13E51336
:1004530030E103E4F514AF067D0112088C8F14E537
:100463001470031203BAAF0F150FEF6032E5146077
:100473002EE50F700343E22012092E8F13AB1005F4
:1004830012E512AA117002051114F9E5DA12024AF3
:10049300E51320E1047F0180027F008F1480C7AF42
:0104A3001444
:0104A4002235
:0605C3008F1B8D1C8B1D37
:1005C9007B007A00791F120904E51E601774017E09
:1005D90000A81D088005C333CE33CED8F9FFEF45F7
:1005E9001FFF801874017E00A81D088005C333CE43
:1005F90033CED8F9F4FFE4FEEF551FFF8F1FAB1F71
:07060900AD1CAF1B12093804
:0106100022C7
:0604A5008F328D338B3411
:0C04AB007B007A007937120904EF604EE4
:1004B70074017E00A835088005C333CE33CED8F942
:1004C70024FFFFEE34FFFEC3E534953504FDEFA8A6
:1004D70005088005C333CE33CED8F9F538E536A8FD
:1004E70005088002C333D8FCF536E5385236F45296
:0E04F70037E5364237AB37AD33AF3202093846
:020505007F0075
:0105070022D1
:02082D008B3B03
:10082F007B007A00793F120904AE3B7401A80608D9
:10083F008002C333D8FC553FAB3CAA3DA93E120200
:01084F004A5E
:010850002285
:02056B008B24DF
:0E056D007B007A007929120904AD07ED604584
:10057B0074017E00A825088005C333CE33CED8F98D
:10058B0024FFFFEE34FFFEC3E524952504FCEFA802
:10059B0004088005C333CE33CED8F9F52A5229E5AA
:1005AB0029A804088002C313D8FCF529AB26AA2777
:0505BB00A92812024A0C
:0205C000AF0585
:0105C2002216
:1008F1008A498B4A7543007544007545497B01124D
:03090100050822C4
:04050800AC03AE058D
:10050C00E4FD12088CAD078EDA12092EEF30E102F1
:10051C00E4FDAE041CEED39400403EED6401703952
:10052C00AB43AA44A94512027EE5F0F5DA12092E76
:10053C00EF30E102E4FDED6020AB43E545F9240228
:10054C00F545E544FA3400F54412027EF5DA120959
:0E055C002EEF30E1BDE4FD80B943E220AF0593
:01056A00226E
:0B0872007FFA7E0012087D7FFA7E00F6
:0F087D000000000000EF1F70011E144E70F222E9
:1008B700AD07AC06120872120872ED1D70011C1408
:0408C7004C70F1225E
:030000000202A950
:0C02A900787FE4F6D8FD75814E0202F06B
:10020400BB010689828A83E0225002E722BBFE02F8
:09021400E32289828A83E493222B
:10021D00BB010CE58229F582E5833AF583E0225096
:10022D0006E92582F8E622BBFE06E92582F8E222E0
:0D023D00E58229F582E5833AF583E49322FA
:10024A00BB010689828A83F0225002F722BBFE0193
:02025A00F3228D
:10025C00F8BB010DE58229F582E5833AF583E8F0D8
:10026C00225006E92582C8F622BBFE05E92582C884
:02027C00F2226C
:10027E00BB010A89828A83E0F5F0A3E0225006874B
:10028E00F009E71922BBFE07E3F5F009E31922890D
:0B029E00828A83E493F5F07401932240
:1008A200E4FFFE120204600C0FEF70010E09E97002
:0508B200F20A80EF22B4
:1002B500020056E493A3F8E493A34003F68001F209
:1002C50008DFF48029E493A3F85407240CC8C3334A
:1002D500C4540F4420C8834004F456800146F6DF19
:1002E500E4800B01020408102040809009CAE47ED6
:1002F500019360BCA3FF543F30E509541FFEE4930E
:10030500A360010ECF54C025E060A840B8E493A3D4
:10031500FAE493A3F8E493A3C8C582C8CAC583CAFF
:10032500F0A3C8C582C8CAC583CADFE9DEE780BEB7
:0109D3000023
:00000001FF
